:020000040000FA
:06080000FEEF05F01200FE
:020806000000F0
:08080800D9CFE6FFE1CFD9FFD3
:10081000160EE1263F0EDF6EDE52060EDD6E5B0E1B
:10082000F36E020EF3CFDBFF4F0EF36E030EF3CF2A
:10083000DBFF660EF36E040EF3CFDBFF6D0EF36E7F
:10084000050EF3CFDBFF7C0EF36E060EF3CFDBFF5E
:10085000070EF36EF3CFDBFF7F0EF36E080EF3CFC0
:10086000DBFF6F0EF36E090EF3CFDBFF836A8C6A3A
:10087000806A896A816A8A6A180E936E956A926A9A
:100880000F0EC16E070EB46E050ED56EB30ED76E89
:10089000B40ED66EF294D58E0A0EDB6A0B0EDB6AAE
:1008A0000E0EDB6A0F0EDB6A0C0EDB6A0D0EDB6AC6
:1008B000140EDB6A150EDB6A100EDB6A110EDB6AA2
:1008C000120EDB6A130EDB6A808A80988096809411
:1008D000D9CF02F0DACF03F00C0EDB500224E96E20
:1008E0000D0EDB500320EA6EEF508C6E010EE66EAB
:1008F000D7EC05F0E5528088809A80968094D9CF15
:1009000002F0DACF03F00E0EDB500224E96E0F0E78
:10091000DB500320EA6EEF508C6E010EE66ED7ECD2
:1009200005F0E552809A809880868094D9CF02F0B5
:10093000DACF03F0100EDB500224E96E110EDB500B
:100940000320EA6EEF508C6E010EE66ED7EC05F0D8
:10095000E552809A809880968084D9CF02F0DACFD1
:1009600003F0120EDB500224E96E130EDB5003205D
:10097000EA6EEF508C6E010EE66ED7EC05F0E55294
:10098000F2A4BBD0D59EF29481A64DD00C0EDB2AEA
:100990000D0E01E3DB2AD9500C0FE96EDACFEAFF26
:1009A0000A0EEE1801E1ED503DE10C0EDB6A0D0E72
:1009B000DB6A0E0EDB2A0F0E01E3DB2AD9500E0F85
:1009C000E96EDACFEAFF0A0EEE1801E1ED502AE1F6
:1009D0000E0EDB6A0F0EDB6A100EDB2A110E01E32E
:1009E000DB2AD950100FE96EDACFEAFF0A0EEE18B3
:1009F00001E1ED5017E1100EDB6A110EDB6A120EF9
:100A0000DB2A130E01E3DB2AD950120FE96EDACF8D
:100A1000EAFF0A0EEE1801E1ED5004E1120EDB6A66
:100A2000130EDB6A5CD00C0EDB060D0E01E2DB065A
:100A3000D9500C0FE96EDACFEAFFFF0EEE1802E193
:100A4000FF0EED184CE1090EF36E0C0EF3CFDBFF39
:100A50000D0EDB6A0E0EDB060F0E01E2DB06D9502F
:100A60000E0FE96EDACFEAFFFF0EEE1802E1FF0E7D
:100A7000ED1835E1090EF36E0E0EF3CFDBFF0F0E0E
:100A8000DB6A100EDB06110E01E2DB06D950100FF7
:100A9000E96EDACFEAFFFF0EEE1802E1FF0EED1865
:100AA0001EE1090EF36E100EF3CFDBFF110EDB6AB1
:100AB000120EDB06130E01E2DB06D950120FE96EAF
:100AC000DACFEAFFFF0EEE1802E1FF0EED1807E1A4
:100AD000090EF36E120EF3CFDBFF130EDB6A81A853
:100AE00006D0130ED76E120ED66ED58E06D0260EF9
:100AF000D76E250ED66EF294D58EE6D6160EE15C34
:100B000002E2E16AE552E16EE552E7CFD9FF120059
:100B1000060EF66E080EF76E000EF86E0001090064
:100B2000F550656F0900F550666F03E1656701D008
:100B30003DD00900F550606F0900F550616F090064
:100B4000F550626F09000900F550E96E0900F55093
:100B5000EA6E090009000900F550636F0900F550BD
:100B6000646F09000900F6CF67F0F7CF68F0F8CF9F
:100B700069F060C0F6FF61C0F7FF62C0F8FF0001D6
:100B8000635302E1645307E00900F550EE6E63071A
:100B9000F8E26407F9D767C0F6FF68C0F7FF69C0DD
:0E0BA000F8FF00016507000E665BBFD712006C
:020BAE00FF0E38
:100BB000E350056EEF0E01D0F30EE76EE72EDEEF89
:100BC00005F00C0E046EE76AE72EE4EF05F0042E44
:0C0BD000E3EF05F0052EDCEF05F012004D
:040BDC00000EF36EA6
:100BE00000EE00F0080E01D81200EA6002D0EE6AB2
:0C0BF000FCD7F350E9601200EE6AFCD75D
:040BFC0013EE00F004
:100C000023EE00F0F86A019C88EC05F004EC04F097
:040C1000FDD71200FA
:00000001FF
