:020000040000FA
:0600000038EF07F01200CA
:0A0006000100920E000082000000CD
:0400100006000000E6
:0C001400EE0EE66EE9EC06F0E552DD0EA3
:10002000E66E010EE66EBAEC06F0E552E552010E00
:10003000816E1200D30EE66EE9EC06F0E552A90ED1
:10004000E66E010EE66EBAEC06F0E552E552020EDF
:10005000816E1200BF0EE66EE9EC06F0E5527B0EF3
:10006000E66E010EE66EBAEC06F0E552E552040EBD
:10007000816E1200B30EE66EE9EC06F0E552660EF4
:10008000E66E010EE66EBAEC06F0E552E552080E99
:10009000816E1200A00EE66EE9EC06F0E5523F0E0E
:1000A000E66E010EE66EBAEC06F0E552E552100E71
:1000B000816E12008E0EE66EE9EC06F0E5521C0E23
:1000C000E66E010EE66EBAEC06F0E552E552200E41
:1000D000816E12007F0EE66EE9EC06F0E552FD0E31
:1000E000E66EE66ABAEC06F0E552E552400E816E25
:1000F0001200780EE66EE9EC06F0E552EF0EE66EC1
:10010000E66ABAEC06F0E552E552800E816E120006
:10011000D9CFE6FFE1CFD9FF9DDFFB0EDBCF14F097
:10012000FC0EDBCF15F0FD0EDBCF16F0FE0EDBCFA5
:1001300017F00A6A0B6A480E0C6E420E0D6E14C060
:1001400005F015C006F016C007F017C008F051EC16
:1001500005F0BEEC05F00750E66E01EC07F0E55245
:1001600079DFFB0EDBCF14F0FC0EDBCF15F0FD0EBC
:10017000DBCF16F0FE0EDBCF17F00A6A0B6A480ED3
:100180000C6E420E0D6E14C005F015C006F016C0C0
:1001900007F017C008F051EC05F0BEEC05F0075071
:1001A000E66E01EC07F0E55265DFFB0EDBCF14F0E5
:1001B000FC0EDBCF15F0FD0EDBCF16F0FE0EDBCF15
:1001C00017F00A6A0B6A480E0C6E420E0D6E14C0D0
:1001D00005F015C006F016C007F017C008F051EC86
:1001E00005F0BEEC05F00750E66E01EC07F0E552B5
:1001F00051DFFB0EDBCF14F0FC0EDBCF15F0FD0E54
:10020000DBCF16F0FE0EDBCF17F00A6A0B6A480E42
:100210000C6E420E0D6E14C005F015C006F016C02F
:1002200007F017C008F051EC05F0BEEC05F00750E0
:10023000E66E01EC07F0E5522DDFFB0EDBCF14F08C
:10024000FC0EDBCF15F0FD0EDBCF16F0FE0EDBCF84
:1002500017F00A6A0B6A480E0C6E420E0D6E14C03F
:1002600005F015C006F016C007F017C008F051ECF5
:1002700005F0BEEC05F00750E66E01EC07F0E55224
:10028000F9DEFB0EDBCF14F0FC0EDBCF15F0FD0E1C
:10029000DBCF16F0FE0EDBCF17F00A6A0B6A480EB2
:1002A0000C6E420E0D6E14C005F015C006F016C09F
:1002B00007F017C008F051EC05F0BEEC05F0075050
:1002C000E66E01EC07F0E552C5DEFB0EDBCF14F065
:1002D000FC0EDBCF15F0FD0EDBCF16F0FE0EDBCFF4
:1002E00017F00A6A0B6A480E0C6E420E0D6E14C0AF
:1002F00005F015C006F016C007F017C008F051EC65
:1003000005F0BEEC05F00750E66E01EC07F0E55293
:1003100091DEFB0EDBCF14F0FC0EDBCF15F0FD0EF3
:10032000DBCF16F0FE0EDBCF17F00A6A0B6A480E21
:100330000C6E420E0D6E14C005F015C006F016C00E
:1003400007F017C008F051EC05F0BEEC05F00750BF
:10035000E66E01EC07F0E5525DDEFB0EDBCF14F03C
:10036000FC0EDBCF15F0FD0EDBCF16F0FE0EDBCF63
:1003700017F00A6A0B6A480E0C6E420E0D6E14C01E
:1003800005F015C006F016C007F017C008F051ECD4
:1003900005F0BEEC05F00750E66E01EC07F0E55203
:1003A00039DEFB0EDBCF14F0FC0EDBCF15F0FD0EBB
:1003B000DBCF16F0FE0EDBCF17F00A6A0B6A480E91
:1003C0000C6E420E0D6E14C005F015C006F016C07E
:1003D00007F017C008F051EC05F0BEEC05F007502F
:1003E000E66E01EC07F0E55225DEFB0EDBCF14F0E4
:1003F000FC0EDBCF15F0FD0EDBCF16F0FE0EDBCFD3
:1004000017F00A6A0B6A480E0C6E420E0D6E14C08D
:1004100005F015C006F016C007F017C008F051EC43
:1004200005F0BEEC05F00750E66E01EC07F0E55272
:1004300011DEFB0EDBCF14F0FC0EDBCF15F0FD0E52
:10044000DBCF16F0FE0EDBCF17F00A6A0B6A480E00
:100450000C6E420E0D6E14C005F015C006F016C0ED
:1004600007F017C008F051EC05F0BEEC05F007509E
:10047000E66E01EC07F0E552EDDDFB0EDBCF14F08C
:10048000FC0EDBCF15F0FD0EDBCF16F0FE0EDBCF42
:1004900017F00A6A0B6A480E0C6E420E0D6E14C0FD
:1004A00005F015C006F016C007F017C008F051ECB3
:1004B00005F0BEEC05F00750E66E01EC07F0E552E2
:1004C000B9DDFB0EDBCF14F0FC0EDBCF15F0FD0E1B
:1004D000DBCF16F0FE0EDBCF17F00A6A0B6A480E70
:1004E0000C6E420E0D6E14C005F015C006F016C05D
:1004F00007F017C008F051EC05F0BEEC05F007500E
:10050000E66E01EC07F0E55295DDFB0EDBCF14F053
:10051000FC0EDBCF15F0FD0EDBCF16F0FE0EDBCFB1
:1005200017F00A6A0B6AC80E0C6E420E0D6E14C0EC
:1005300005F015C006F016C007F017C008F051EC22
:1005400005F0BEEC05F00750E66E01EC07F0E55251
:1005500081DDFB0EDBCF14F0FC0EDBCF15F0FD0EC2
:10056000DBCF16F0FE0EDBCF17F00A6A0B6A480EDF
:100570000C6E420E0D6E14C005F015C006F016C0CC
:1005800007F017C008F051EC05F0BEEC05F007507D
:10059000E66E01EC07F0E5525DDDFB0EDBCF14F0FB
:1005A000FC0EDBCF15F0FD0EDBCF16F0FE0EDBCF21
:1005B00017F00A6A0B6A480E0C6E420E0D6E14C0DC
:1005C00005F015C006F016C007F017C008F051EC92
:1005D00005F0BEEC05F00750E66E01EC07F0E552C1
:1005E00049DDFB0EDBCF14F0FC0EDBCF15F0FD0E6A
:1005F000DBCF16F0FE0EDBCF17F00A6A0B6A480E4F
:100600000C6E420E0D6E14C005F015C006F016C03B
:1006100007F017C008F051EC05F0BEEC05F00750EC
:10062000E66E01EC07F0E55235DDFB0EDBCF14F092
:10063000FC0EDBCF15F0FD0EDBCF16F0FE0EDBCF90
:1006400017F00A6A0B6A480E0C6E420E0D6E14C04B
:1006500005F015C006F016C007F017C008F051EC01
:1006600005F0BEEC05F00750E66E01EC07F0E55230
:1006700011DDFB0EDBCF14F0FC0EDBCF15F0FD0E11
:10068000DBCF16F0FE0EDBCF17F00A6A0B6A480EBE
:100690000C6E420E0D6E14C005F015C006F016C0AB
:1006A00007F017C008F051EC05F0BEEC05F007505C
:1006B000E66E01EC07F0E552DDDCFB0EDBCF14F05B
:1006C000FC0EDBCF15F0FD0EDBCF16F0FE0EDBCF00
:1006D00017F00A6A0B6A480E0C6E420E0D6E14C0BB
:1006E00005F015C006F016C007F017C008F051EC71
:1006F00005F0BEEC05F00750E66E01EC07F0E552A0
:10070000A9DCFB0EDBCF14F0FC0EDBCF15F0FD0EE9
:10071000DBCF16F0FE0EDBCF17F00A6A0B6A480E2D
:100720000C6E420E0D6E14C005F015C006F016C01A
:1007300007F017C008F051EC05F0BEEC05F00750CB
:10074000E66E01EC07F0E55275DCFB0EDBCF14F032
:10075000FC0EDBCF15F0FD0EDBCF16F0FE0EDBCF6F
:1007600017F00A6A0B6A480E0C6E420E0D6E14C02A
:1007700005F015C006F016C007F017C008F051ECE0
:1007800005F0BEEC05F00750E66E01EC07F0E5520F
:1007900041DCFB0EDBCF14F0FC0EDBCF15F0FD0EC1
:1007A000DBCF16F0FE0EDBCF17F00A6A0B6A480E9D
:1007B0000C6E420E0D6E14C005F015C006F016C08A
:1007C00007F017C008F051EC05F0BEEC05F007503B
:1007D000E66E01EC07F0E5521DDCFB0EDBCF14F0FA
:1007E000FC0EDBCF15F0FD0EDBCF16F0FE0EDBCFDF
:1007F00017F00A6A0B6A480E0C6E420E0D6E14C09A
:1008000005F015C006F016C007F017C008F051EC4F
:1008100005F0BEEC05F00750E66E01EC07F0E5527E
:1008200009DCFB0EDBCF14F0FC0EDBCF15F0FD0E68
:10083000DBCF16F0FE0EDBCF17F00A6A0B6A480E0C
:100840000C6E420E0D6E14C005F015C006F016C0F9
:1008500007F017C008F051EC05F0BEEC05F00750AA
:10086000E66E01EC07F0E5522AEC00F0FB0EDBCF60
:1008700014F0FC0EDBCF15F0FD0EDBCF16F0FE0EF4
:10088000DBCF17F00A6A0B6A480E0C6E420E0D6E33
:1008900014C005F015C006F016C007F017C008F028
:1008A00051EC05F0BEEC05F00750E66E01EC07F0E8
:1008B000E5521AEC00F0FB0EDBCF14F0FC0EDBCFA0
:1008C00015F0FD0EDBCF16F0FE0EDBCF17F00A6A37
:1008D0000B6A480E0C6E420E0D6E14C005F015C06A
:1008E00006F016C007F017C008F051EC05F0BEEC9A
:1008F00005F00750E66E01EC07F0E5520AEC00F057
:10090000FB0EDBCF14F0FC0EDBCF15F0FD0EDBCFC2
:1009100016F0FE0EDBCF17F00A6A0B6A480E0C6E5B
:10092000420E0D6E14C005F015C006F016C007F09B
:1009300017C008F051EC05F0BEEC05F00750E66E6C
:1009400001EC07F0E5520AEC00F0FB0EDBCF14F0EF
:10095000FC0EDBCF15F0FD0EDBCF16F0FE0EDBCF6D
:1009600017F00A6A0B6AC80E0C6E420E0D6E14C0A8
:1009700005F015C006F016C007F017C008F051ECDE
:1009800005F0BEEC05F00750E66E01EC07F0E5520D
:1009900046EC07F0030EE66E01EC07F0E552E55277
:1009A000E7CFD9FF1200060E0001626F636B646B24
:1009B000656B370E666F676B440E686F696B0F0E61
:1009C0006A6F6B6BC00E6C6F6D6BD38CD38AD398D0
:1009D000D382926A806A896A800E946E826A956E6A
:1009E000836A8C6A936E816A8A6A9494CA94CA8272
:1009F000CA80CA8482BE0DD0040E896EE66AE66A99
:100A0000E66A400EE66E88EC00F0E552E552E552EB
:100A1000E55281BE0DD0E66AE66A400EE66EE66EED
:100A200088EC00F0E552E552E552E552010E896E80
:100A300083BE2FD0020E896E66C08AFF68C08CFF0D
:100A40008290030EE66E18EC07F0E552828062C0D9
:100A50008AFF64C08CFF8292030EE66E18EC07F0EA
:100A6000E552828266C08AFF68C08CFF8298030EBE
:100A7000E66E18EC07F0E55282886AC08AFF6CC007
:100A80008CFF829C030EE66E18EC07F0E552828C18
:100A900006D0896A82828288828A8280828CAAD7E2
:020AA000120042
:0E0AA2000F6A3DEC06F055EC06F00FB6E5EFDE
:100AB00005F00FA205D00FB8E5EF05F0ECEF05F05B
:100AC0000FAA05D00FB0E5EF05F0ECEF05F00FB081
:100AD00002D00FA802D0F8EF05F0036A0D500824E9
:100AE000026EE86A03227E0E025EE86A035A126A08
:100AF000136A006A016A0C500702F4CF01F0F3CFC9
:100B000000F00B500702F3501326F4500022000EA1
:100B100001220C500602F3501326F4500022000E5E
:100B200001220A500702F3501226F4501322000E3D
:100B3000002201220B500602F3501226F450132219
:100B4000000E002201220C500502F3501226F45030
:100B50001322000E002201220A500602F45012262F
:100B6000000E1322002201220B500502F45012261F
:100B7000000E13220022012201EF06F00F6A3DEC65
:100B800006F00FB6C8EF05F00FA20AD00FB403D0DD
:100B90007F0E076E19D0800E076E16D0076A14D02C
:100BA0000FB0FCD7870E0860F1D77E0E0864F6D729
:100BB000860E085C04E0D8900732082AF9D70FA403
:100BC00003D0076C07AEEAD712007F0E086EFF0E47
:100BD000076E066E056E12007F0E0FBEFF0E086ECA
:100BE00002D07F0E086E800E076E066A056AF3D784
:100BF0000FAE04D0800E086E076AF7D7086A076A3E
:100C0000F4D70150001013101210F8E003BEF0D713
:100C100001BE0CD002500310EBE0D8901236133610
:100C2000003601360206D8A00306F2D70350D4E1FD
:100C30000228D2E012AE11D07F0E121402E113A0EE
:100C40000CD0132AE86A0022012207E3D88001327F
:100C500000321332022A0228BFE00250C9E013C05A
:100C600005F000C006F00134076E0230086E07324E
:100C7000089E0FBE088EEBEF05F00736083602E33C
:100C80000F840F7E06E10F80086A076A066A056A0C
:100C90001200082803E0D88007321200D8900732EB
:100CA00002E10F8212000F8612000C360D3602E3AD
:100CB0000F8C0F7E06E10F880D6A0C6A0B6A0A6AB8
:100CC00012000D2803E0D8800C321200D8900C32AC
:060CD000EAE10F8A1200A8
:0A0CD600060EF66E000EF76E000E1B
:100CE000F86E00010900F5507D6F0900F5507E6F28
:100CF00003E17D6701D03DD00900F550786F090010
:100D0000F550796F0900F5507A6F09000900F55028
:100D1000E96E0900F550EA6E090009000900F55076
:100D20007B6F0900F5507C6F09000900F6CF7FF05A
:100D3000F7CF80F0F8CF81F078C0F6FF79C0F7FFE9
:100D40007AC0F8FF00017B5302E17C5307E0090001
:100D5000F550EE6E7B07F8E27C07F9D77FC0F6FF0F
:100D600080C0F7FF81C0F8FF00017D07000E7E5BA9
:040D7000BFD71200D7
:0C0D7400D9CFE6FFDACFE6FFE1CFD9FFD0
:100D8000E2CFDAFFE652E652FC0EDBCF14F0FD0EA6
:100D9000DBCF15F0060ED89014361536E804FBE1CB
:100DA00014C0DEFF15C0DDFF010EDB50BE6EDF504C
:100DB000E840E8403F0B300B146ECF0EBD1414100A
:100DC000BD6EE552E552E552E5CFDAFFE7CFD9FF38
:020DD00012000F
:0E0DD200D9CFE6FFDACFE6FFE1CFD9FFE2CFBF
:100DE000DAFF0C0EBD129494CA94FD0EDB50CB6E4C
:100DF000CA84E552E5CFDAFFE7CFD9FF1200949419
:020E00001200DE
:0E0E0200FF0EE350196EEF0E01D0F30EE76EF7
:100E1000E72E08EF07F00C0E186EE76AE72E0EEFCC
:100E200007F0182E0DEF07F0192E06EF07F012004D
:100E3000FF0EE350196E480E01D04C0EE76EE72E00
:100E4000FED7E76AE72EFED7192EF7D7000012006B
:100E5000000EF36E00EE00F0080E01D81200EA60FA
:100E600002D0EE6AFCD7F350E9601200EE6AFCD7BC
:100E700013EE00F023EE00F0F86A0F9C6BEC06F026
:0C0E800048EC07F0D3EC04F0FBD71200A4
:040E8C00BD6A120029
:020E900012004E
:060E92000F00000000004B
:00000001FF
