:020000040000FA
:06080000BFEF0BF0120037
:0A0806000100961700006A000000D0
:0408100004000000E0
:0C081400EE0EE66E80EC0BF0E552DD0EFF
:10082000E66E010EE66E51EC0BF0E552E552010E5C
:10083000816E1200D30EE66E80EC0BF0E552A90E2D
:10084000E66E010EE66E51EC0BF0E552E552020E3B
:10085000816E1200BF0EE66E80EC0BF0E5527B0E4F
:10086000E66E010EE66E51EC0BF0E552E552040E19
:10087000816E1200B30EE66E80EC0BF0E552660E50
:10088000E66E010EE66E51EC0BF0E552E552080EF5
:10089000816E1200A00EE66E80EC0BF0E5523F0E6A
:1008A000E66E010EE66E51EC0BF0E552E552100ECD
:1008B000816E12008E0EE66E80EC0BF0E5521C0E7F
:1008C000E66E010EE66E51EC0BF0E552E552200E9D
:1008D000816E12007F0EE66E80EC0BF0E552FD0E8D
:1008E000E66EE66A51EC0BF0E552E552400E816E81
:1008F0001200780EE66E80EC0BF0E552EF0EE66E1D
:10090000E66A51EC0BF0E552E552800E816E120062
:10091000D38CD38AD398D3828B6A946A816A8A6A89
:10092000836A8C6A0F0EC16E070EB46E0F0E956E41
:10093000936A070ECA6EF28EF294D09EF28AD58E1A
:10094000D568F80ED76E5E0ED66E010EC26E0E0E14
:10095000C16E360EC06E9E9CC28289828994C2B2DC
:1009600082D09E9CC450040DF35000016A6F6B6BE3
:10097000060EC4CFE7FF070B04E0E742E79EE80658
:10098000FCE1E750030B00016C6F6D6B6A516C1159
:100990006A6F6B516D116B6F800E6B1511E16B35CA
:1009A00004E26A516408000E6B550AE3E66AE66ADF
:1009B000E66A3F0EE66E59D8E552E552E552E55239
:1009C000650E00016BAF02D0D89003D06A5D000EB7
:1009D0006B5912E36B3504E26A51C808000E6B557F
:1009E0000BE3E66AE66A800EE66E3F0EE66E3DD8E1
:1009F000E552E552E552E552C90E00016BAF02D057
:100A0000D89003D06A5D000E6B5912E36B3504E297
:100A10006A512C08010E6B550BE3E66AE66AC00EBC
:100A2000E66E3F0EE66E21D8E552E552E552E552FC
:100A30000001D8906B5104E62D0E6A5D010E6B59D2
:100A400011E36B3504E26A519008010E6B550AE31D
:100A5000E66AE66AE66A400EE66E07D8E552E552B7
:100A6000E552E552C2827BD71200D9CFE6FFE1CF33
:100A7000D9FFF0DEFB0EDBCF14F0FC0EDBCF15F060
:100A8000FD0EDBCF16F0FE0EDBCF17F00A6A0B6A05
:100A9000480E0C6E420E0D6E14C005F015C006F027
:100AA00016C007F017C008F0E8EC09F055EC0AF0A2
:100AB0000750E66E98EC0BF0E552CCDEFB0EDBCF78
:100AC00014F0FC0EDBCF15F0FD0EDBCF16F0FE0EA2
:100AD000DBCF17F00A6A0B6A480E0C6E420E0D6EE1
:100AE00014C005F015C006F016C007F017C008F0D6
:100AF000E8EC09F055EC0AF00750E66E98EC0BF0C4
:100B0000E552B8DEFB0EDBCF14F0FC0EDBCF15F0A8
:100B1000FD0EDBCF16F0FE0EDBCF17F00A6A0B6A74
:100B2000480E0C6E420E0D6E14C005F015C006F096
:100B300016C007F017C008F0E8EC09F055EC0AF011
:100B40000750E66E98EC0BF0E552A4DEFB0EDBCF0F
:100B500014F0FC0EDBCF15F0FD0EDBCF16F0FE0E11
:100B6000DBCF17F00A6A0B6A480E0C6E420E0D6E50
:100B700014C005F015C006F016C007F017C008F045
:100B8000E8EC09F055EC0AF00750E66E98EC0BF033
:100B9000E55280DEFB0EDBCF14F0FC0EDBCF15F050
:100BA000FD0EDBCF16F0FE0EDBCF17F00A6A0B6AE4
:100BB000480E0C6E420E0D6E14C005F015C006F006
:100BC00016C007F017C008F0E8EC09F055EC0AF081
:100BD0000750E66E98EC0BF0E5524CDEFB0EDBCFD7
:100BE00014F0FC0EDBCF15F0FD0EDBCF16F0FE0E81
:100BF000DBCF17F00A6A0B6A480E0C6E420E0D6EC0
:100C000014C005F015C006F016C007F017C008F0B4
:100C1000E8EC09F055EC0AF00750E66E98EC0BF0A2
:100C2000E55218DEFB0EDBCF14F0FC0EDBCF15F027
:100C3000FD0EDBCF16F0FE0EDBCF17F00A6A0B6A53
:100C4000480E0C6E420E0D6E14C005F015C006F075
:100C500016C007F017C008F0E8EC09F055EC0AF0F0
:100C60000750E66E98EC0BF0E552E4DDFB0EDBCFAF
:100C700014F0FC0EDBCF15F0FD0EDBCF16F0FE0EF0
:100C8000DBCF17F00A6A0B6A480E0C6E420E0D6E2F
:100C900014C005F015C006F016C007F017C008F024
:100CA000E8EC09F055EC0AF00750E66E98EC0BF012
:100CB000E552B0DDFB0EDBCF14F0FC0EDBCF15F000
:100CC000FD0EDBCF16F0FE0EDBCF17F00A6A0B6AC3
:100CD000480E0C6E420E0D6E14C005F015C006F0E5
:100CE00016C007F017C008F0E8EC09F055EC0AF060
:100CF0000750E66E98EC0BF0E5528CDDFB0EDBCF77
:100D000014F0FC0EDBCF15F0FD0EDBCF16F0FE0E5F
:100D1000DBCF17F00A6A0B6A480E0C6E420E0D6E9E
:100D200014C005F015C006F016C007F017C008F093
:100D3000E8EC09F055EC0AF00750E66E98EC0BF081
:100D4000E55278DDFB0EDBCF14F0FC0EDBCF15F0A7
:100D5000FD0EDBCF16F0FE0EDBCF17F00A6A0B6A32
:100D6000480E0C6E420E0D6E14C005F015C006F054
:100D700016C007F017C008F0E8EC09F055EC0AF0CF
:100D80000750E66E98EC0BF0E55264DDFB0EDBCF0E
:100D900014F0FC0EDBCF15F0FD0EDBCF16F0FE0ECF
:100DA000DBCF17F00A6A0B6A480E0C6E420E0D6E0E
:100DB00014C005F015C006F016C007F017C008F003
:100DC000E8EC09F055EC0AF00750E66E98EC0BF0F1
:100DD000E55240DDFB0EDBCF14F0FC0EDBCF15F04F
:100DE000FD0EDBCF16F0FE0EDBCF17F00A6A0B6AA2
:100DF000480E0C6E420E0D6E14C005F015C006F0C4
:100E000016C007F017C008F0E8EC09F055EC0AF03E
:100E10000750E66E98EC0BF0E5520CDDFB0EDBCFD5
:100E200014F0FC0EDBCF15F0FD0EDBCF16F0FE0E3E
:100E3000DBCF17F00A6A0B6A480E0C6E420E0D6E7D
:100E400014C005F015C006F016C007F017C008F072
:100E5000E8EC09F055EC0AF00750E66E98EC0BF060
:100E6000E552E8DCFB0EDBCF14F0FC0EDBCF15F017
:100E7000FD0EDBCF16F0FE0EDBCF17F00A6A0B6A11
:100E8000C80E0C6E420E0D6E14C005F015C006F0B3
:100E900016C007F017C008F0E8EC09F055EC0AF0AE
:100EA0000750E66E98EC0BF0E552D4DCFB0EDBCF7E
:100EB00014F0FC0EDBCF15F0FD0EDBCF16F0FE0EAE
:100EC000DBCF17F00A6A0B6A480E0C6E420E0D6EED
:100ED00014C005F015C006F016C007F017C008F0E2
:100EE000E8EC09F055EC0AF00750E66E98EC0BF0D0
:100EF000E552B0DCFB0EDBCF14F0FC0EDBCF15F0BF
:100F0000FD0EDBCF16F0FE0EDBCF17F00A6A0B6A80
:100F1000480E0C6E420E0D6E14C005F015C006F0A2
:100F200016C007F017C008F0E8EC09F055EC0AF01D
:100F30000750E66E98EC0BF0E5529CDCFB0EDBCF25
:100F400014F0FC0EDBCF15F0FD0EDBCF16F0FE0E1D
:100F5000DBCF17F00A6A0B6A480E0C6E420E0D6E5C
:100F600014C005F015C006F016C007F017C008F051
:100F7000E8EC09F055EC0AF00750E66E98EC0BF03F
:100F8000E55288DCFB0EDBCF14F0FC0EDBCF15F056
:100F9000FD0EDBCF16F0FE0EDBCF17F00A6A0B6AF0
:100FA000480E0C6E420E0D6E14C005F015C006F012
:100FB00016C007F017C008F0E8EC09F055EC0AF08D
:100FC0000750E66E98EC0BF0E55264DCFB0EDBCFCD
:100FD00014F0FC0EDBCF15F0FD0EDBCF16F0FE0E8D
:100FE000DBCF17F00A6A0B6A480E0C6E420E0D6ECC
:100FF00014C005F015C006F016C007F017C008F0C1
:10100000E8EC09F055EC0AF00750E66E98EC0BF0AE
:10101000E55230DCFB0EDBCF14F0FC0EDBCF15F01D
:10102000FD0EDBCF16F0FE0EDBCF17F00A6A0B6A5F
:10103000480E0C6E420E0D6E14C005F015C006F081
:1010400016C007F017C008F0E8EC09F055EC0AF0FC
:101050000750E66E98EC0BF0E5522AEC04F0FB0E1C
:10106000DBCF14F0FC0EDBCF15F0FD0EDBCF16F05E
:10107000FE0EDBCF17F00A6A0B6A480E0C6E420EAA
:101080000D6E14C005F015C006F016C007F017C0AD
:1010900008F0E8EC09F055EC0AF00750E66E98EC21
:1010A0000BF0E5521AEC04F0FB0EDBCF14F0FC0E53
:1010B000DBCF15F0FD0EDBCF16F0FE0EDBCF17F009
:1010C0000A6A0B6A480E0C6E420E0D6E14C005F0D3
:1010D00015C006F016C007F017C008F0E8EC09F0DC
:1010E00055EC0AF00750E66E98EC0BF0E5520AEC6E
:1010F00004F0FB0EDBCF14F0FC0EDBCF15F0FD0E81
:10110000DBCF16F0FE0EDBCF17F00A6A0B6A480E33
:101110000C6E420E0D6E14C005F015C006F016C020
:1011200007F017C008F0E8EC09F055EC0AF007509A
:10113000E66E98EC0BF0E5520AEC04F0FB0EDBCF08
:1011400014F0FC0EDBCF15F0FD0EDBCF16F0FE0E1B
:10115000DBCF17F00A6A0B6A480E0C6E420E0D6E5A
:1011600014C005F015C006F016C007F017C008F04F
:10117000E8EC09F055EC0AF00750E66E98EC0BF03D
:10118000E5521AEC04F0FB0EDBCF14F0FC0EDBCFC3
:1011900015F0FD0EDBCF16F0FE0EDBCF17F00A6A5E
:1011A0000B6A480E0C6E420E0D6E14C005F015C091
:1011B00006F016C007F017C008F0E8EC09F055EC8F
:1011C0000AF00750E66E98EC0BF0E5522AEC04F0BA
:1011D000FB0EDBCF14F0FC0EDBCF15F0FD0EDBCFEA
:1011E00016F0FE0EDBCF17F00A6A0B6A480E0C6E83
:1011F000420E0D6E14C005F015C006F016C007F0C3
:1012000017C008F0E8EC09F055EC0AF00750E66E5C
:1012100098EC0BF0E5521AEC04F0FB0EDBCF14F067
:10122000FC0EDBCF15F0FD0EDBCF16F0FE0EDBCF94
:1012300017F00A6A0B6A480E0C6E420E0D6E14C04F
:1012400005F015C006F016C007F017C008F0E8EC6E
:1012500009F055EC0AF00750E66E98EC0BF0E552F9
:101260000AEC04F0FB0EDBCF14F0FC0EDBCF15F024
:10127000FD0EDBCF16F0FE0EDBCF17F00A6A0B6A0D
:10128000480E0C6E420E0D6E14C005F015C006F02F
:1012900016C007F017C008F0E8EC09F055EC0AF0AA
:1012A0000750E66E98EC0BF0E5520AEC04F0FB0EEA
:1012B000DBCF14F0FC0EDBCF15F0FD0EDBCF16F00C
:1012C000FE0EDBCF17F00A6A0B6AC80E0C6E420ED8
:1012D0000D6E14C005F015C006F016C007F017C05B
:1012E00008F0E8EC09F055EC0AF00750E66E98ECCF
:1012F0000BF0E552E552E7CFD9FF12001AEC04F0EB
:10130000320EE66E98EC0BF0E5521AEC04F0640E27
:10131000E66E98EC0BF0E5522AEC04F0320EE66E25
:1013200098EC0BF0E5523AEC04F0320EE66E98ECD5
:101330000BF0E5524AEC04F0640EE66E98EC0BF00C
:10134000E5525AEC04F0320EE66E98EC0BF0E552E2
:101350001AEC04F0320EE66E98EC0BF0E5521AEC43
:1013600004F0320EE66E98EC0BF0E5526AEC04F0F5
:10137000640EE66E98EC0BF0E5525AEC04F0320E77
:10138000E66E98EC0BF0E5524AEC04F0320EE66E95
:1013900098EC0BF0E5524AEC04F0640EE66E98EC23
:1013A0000BF0E5520AEC04F0320EE66E98EC0BF00E
:1013B000E5526AEC04F0640EE66E98EC0BF0E55230
:1013C0005AEC04F0320EE66E98EC0BF0E552120087
:1013D0000F6AD4EC0AF0ECEC0AF00FB67CEF0AF0DE
:1013E0000FA205D00FB87CEF0AF083EF0AF00FAA26
:1013F00005D00FB07CEF0AF083EF0AF00FB002D0F7
:101400000FA802D08FEF0AF0036A0D500824026E75
:10141000E86A03227E0E025EE86A035A126A136AC1
:10142000006A016A0C500702F4CF01F0F3CF00F01C
:101430000B500702F3501326F4500022000E012235
:101440000C500602F3501326F4500022000E012225
:101450000A500702F3501226F4501322000E002205
:1014600001220B500602F3501226F4501322000EF4
:10147000002201220C500502F3501226F4501322D0
:10148000000E002201220A500602F4501226000E1D
:101490001322002201220B500502F4501226000EE6
:1014A00013220022012298EF0AF00F6AD4EC0AF00E
:1014B0000FB65FEF0AF00FA20AD00FB403D07F0E71
:1014C000076E19D0800E076E16D0076A14D00FB0C1
:1014D000FCD7870E0860F1D77E0E0864F6D7860E1B
:1014E000085C04E0D8900732082AF9D70FA403D08B
:1014F000076C07AEEAD712007F0E086EFF0E076E6C
:10150000066E056E12007F0E0FBEFF0E086E02D033
:101510007F0E086E800E076E066A056AF3D70FAE5F
:1015200004D0800E086E076AF7D7086A076AF4D7F6
:101530000150001013101210F8E003BEF0D701BEE6
:101540000CD002500310EBE0D89012361336003660
:1015500001360206D8A00306F2D70350D4E10228D0
:10156000D2E012AE11D07F0E121402E113A00CD003
:10157000132AE86A0022012207E3D88001320032F0
:101580001332022A0228BFE00250C9E013C005F05E
:1015900000C006F00134076E0230086E0732089E64
:1015A0000FBE088E82EF0AF00736083602E30F847A
:1015B0000F7E06E10F80086A076A066A056A120054
:1015C000082803E0D88007321200D890073202E1E1
:1015D0000F8212000F8612000C360D3602E30F8CBC
:1015E0000F7E06E10F880D6A0C6A0B6A0A6A120008
:1015F0000D2803E0D8800C321200D8900C32EAE1BA
:041600000F8A12003B
:0C160400060EF66E080EF76E000EF86E73
:1016100000010900F550656F0900F550666F03E1A0
:10162000656701D03DD00900F550606F0900F550A5
:10163000616F0900F550626F09000900F550E96E0D
:101640000900F550EA6E090009000900F550636FC2
:101650000900F550646F09000900F6CF67F0F7CF75
:1016600068F0F8CF69F060C0F6FF61C0F7FF62C0B4
:10167000F8FF0001635302E1645307E00900F550ED
:10168000EE6E6307F8E26407F9D767C0F6FF68C03B
:10169000F7FF69C0F8FF00016507000E665BBFD762
:0216A000120036
:0E16A200D9CFE6FFDACFE6FFE1CFD9FFE2CFE6
:1016B000DAFFE652E652FC0EDBCF14F0FD0EDBCF74
:1016C00015F0060ED89014361536E804FBE114C068
:1016D000DEFF15C0DDFF010EDB50BE6EDF50E840BF
:1016E000E8403F0B300B146ECF0EBD141410BD6ECE
:1016F000E552E552E552E5CFDAFFE7CFD9FF120018
:10170000D9CFE6FFDACFE6FFE1CFD9FFE2CFDAFFAC
:101710000C0EBD129494CA94FD0EDB50CB6ECA849D
:10172000E552E5CFDAFFE7CFD9FF1200949412001B
:10173000FF0EE350196EEF0E01D0F30EE76EE72EA9
:101740009FEF0BF00C0E186EE76AE72EA5EF0BF07B
:0E175000182EA4EF0BF0192E9DEF0BF01200D7
:02175E00000E7B
:10176000F36E00EE00F0080E01D81200EA6002D01D
:0E177000EE6AFCD7F350E9601200EE6AFCD777
:02177E0013EE68
:1017800000F023EE00F0F86A0F9C02EC0BF088ECFE
:0617900004F0FDD7120079
:04179600000000004F
:00000001FF
